{
  "_format": "hh-sol-artifact-1",
  "contractName": "DonationContract",
  "sourceName": "contracts/DonationContract.sol",
  "abi": [
    {
      "inputs": [
        {
          "internalType": "string",
          "name": "_name",
          "type": "string"
        },
        {
          "internalType": "uint256",
          "name": "_amount",
          "type": "uint256"
        }
      ],
      "name": "donate",
      "outputs": [],
      "stateMutability": "nonpayable",
      "type": "function"
    },
    {
      "inputs": [
        {
          "internalType": "uint256",
          "name": "",
          "type": "uint256"
        }
      ],
      "name": "donations",
      "outputs": [
        {
          "internalType": "string",
          "name": "name",
          "type": "string"
        },
        {
          "internalType": "address",
          "name": "userID",
          "type": "address"
        },
        {
          "internalType": "uint256",
          "name": "amount",
          "type": "uint256"
        },
        {
          "internalType": "uint256",
          "name": "timestamp",
          "type": "uint256"
        }
      ],
      "stateMutability": "view",
      "type": "function"
    },
    {
      "inputs": [],
      "name": "getDonationCount",
      "outputs": [
        {
          "internalType": "uint256",
          "name": "",
          "type": "uint256"
        }
      ],
      "stateMutability": "view",
      "type": "function"
    },
    {
      "inputs": [
        {
          "internalType": "string",
          "name": "_name",
          "type": "string"
        }
      ],
      "name": "getTotalDonations",
      "outputs": [
        {
          "internalType": "uint256",
          "name": "",
          "type": "uint256"
        }
      ],
      "stateMutability": "view",
      "type": "function"
    }
  ],
  "bytecode": "0x608060405234801561001057600080fd5b5061075a806100206000396000f3fe608060405234801561001057600080fd5b506004361061004c5760003560e01c80634e0c1e3714610051578063e55a62a81461007a578063efb21c5914610082578063f8626af814610097575b600080fd5b61006461005f366004610471565b6100ba565b6040516100719190610645565b60405180910390f35b6100646101a8565b6100956100903660046104ac565b6101ae565b005b6100aa6100a53660046104ef565b610283565b60405161007194939291906105be565b600080805b6000548110156101a157836040516020016100da9190610507565b604051602081830303815290604052805190602001206000828154811061011157634e487b7160e01b600052603260045260246000fd5b90600052602060002090600402016000016040516020016101329190610523565b60405160208183030381529060405280519060200120141561018f576000818154811061016f57634e487b7160e01b600052603260045260246000fd5b9060005260206000209060040201600201548261018c919061065a565b91505b80610199816106dd565b9150506100bf565b5092915050565b60005490565b600081116101d75760405162461bcd60e51b81526004016101ce9061060e565b60405180910390fd5b60408051608081018252838152336020808301919091529181018390524260608201526000805460018101825590805281518051929360049092027f290decd9548b62a8d60345a988386fc84ba6bc95484008f6362f93160ef3e56301926102429284920190610357565b5060208201516001820180546001600160a01b0319166001600160a01b03909216919091179055604082015160028201556060909101516003909101555050565b6000818154811061029357600080fd5b90600052602060002090600402016000915090508060000180546102b6906106a2565b80601f01602080910402602001604051908101604052809291908181526020018280546102e2906106a2565b801561032f5780601f106103045761010080835404028352916020019161032f565b820191906000526020600020905b81548152906001019060200180831161031257829003601f168201915b505050506001830154600284015460039094015492936001600160a01b039091169290915084565b828054610363906106a2565b90600052602060002090601f01602090048101928261038557600085556103cb565b82601f1061039e57805160ff19168380011785556103cb565b828001600101855582156103cb579182015b828111156103cb5782518255916020019190600101906103b0565b506103d79291506103db565b5090565b5b808211156103d757600081556001016103dc565b600082601f830112610400578081fd5b813567ffffffffffffffff8082111561041b5761041b61070e565b604051601f8301601f19168101602001828111828210171561043f5761043f61070e565b604052828152848301602001861015610456578384fd5b82602086016020830137918201602001929092529392505050565b600060208284031215610482578081fd5b813567ffffffffffffffff811115610498578182fd5b6104a4848285016103f0565b949350505050565b600080604083850312156104be578081fd5b823567ffffffffffffffff8111156104d4578182fd5b6104e0858286016103f0565b95602094909401359450505050565b600060208284031215610500578081fd5b5035919050565b60008251610519818460208701610672565b9190910192915050565b815460009081906002810460018083168061053f57607f831692505b602080841082141561055f57634e487b7160e01b87526022600452602487fd5b8180156105735760018114610584576105b0565b60ff198616895284890196506105b0565b61058d8a61064e565b885b868110156105a85781548b82015290850190830161058f565b505084890196505b509498975050505050505050565b60006080825285518060808401526105dd8160a0850160208a01610672565b6001600160a01b03959095166020830152506040810192909252606082015260a0601f909201601f19160101919050565b6020808252601d908201527f416d6f756e74206d7573742062652067726561746572207468616e2030000000604082015260600190565b90815260200190565b60009081526020902090565b6000821982111561066d5761066d6106f8565b500190565b60005b8381101561068d578181015183820152602001610675565b8381111561069c576000848401525b50505050565b6002810460018216806106b657607f821691505b602082108114156106d757634e487b7160e01b600052602260045260246000fd5b50919050565b60006000198214156106f1576106f16106f8565b5060010190565b634e487b7160e01b600052601160045260246000fd5b634e487b7160e01b600052604160045260246000fdfea2646970667358221220b136b3c77e7fd3e8b32544421af5985823b7e383b6a8cc8153520cadc5656d8b64736f6c63430008000033",
  "linkReferences": {},
  "deployedLinkReferences": {}
}